S01D000050726F6A6563742D322E31202D2041726475696E6F2E7372656333
S11300000C9434000C943E000C943E000C943E007E
S11300100C943E000C943E000C943E000C943E0064
S11300200C943E000C943E000C943E000C943E0054
S11300300C943E000C943E000C943E000C943E0044
S11300400C943E000C943E000C943E000C943E0034
S11300500C943E000C943E000C943E000C943E0024
S11300600C943E000C943E0011241FBECFEFD8E048
S1130070DEBFCDBF0E9440000C94C6000C9400006B
S1130080CF93DF93CDB7DEB7C85CD1090FB6F89430
S1130090DEBF0FBECDBF0E9461002FEF83ED90E362
S11300A0215080409040E1F700C0000068EC70E00F
S11300B0CE0101960E949A00CE0101960E9477001B
S11300C0F5CF1092C50083E38093C4001092C00062
S11300D088E18093C10086E08093C2000895E0EC3B
S11300E0F0E0908195FFFDCF8093C60008950F93B3
S11300F01F93CF93DF93FC0101900020E9F7319720
S1130100DE2FD81B51F08C01C0E0F80181918F01E2
S11301100E946F00CF5FDC13F8CFDF91CF911F9166
S11301200F910895E0ECF0E080818823ECF7809152
S1130130C6000895EF92FF920F931F93CF938C0103
S1130140C0E0E62EF12C81E0E81AF10801C0C22FCC
S11301500E9492008A3081F021E02C0FF801EC0F0C
S1130160F11D8083822F90E0F801E80FF91F1082BF
S11301708E159F0564F304C0F801EC0FF11D108285
S1130180CF911F910F91FF90EF900895F894FFCFB6
S9030000FC
