S01D000050726F6A6563742D322E31202D2041726475696E6F2E7372656333
S11300000C9434000C9449000C9449000C9449005D
S11300100C9449000C9449000C9449000C94490038
S11300200C9449000C9449000C9449000C94490028
S11300300C9449000C9449000C9449000C94490018
S11300400C9449000C9449000C9449000C94490008
S11300500C9449000C9449000C9449000C944900F8
S11300600C9449000C94490011241FBECFEFD8E032
S1130070DEBFCDBF11E0A0E0B1E0E2E2F1E002C0FA
S113008005900D92A431B107D9F70E944B000C944E
S11300908F000C9400000E945B002FEF83ED90E32F
S11300A0215080409040E1F700C0000080E091E0E2
S11300B00E947100FBCF1092C50083E38093C400BB
S11300C01092C00088E18093C10086E08093C20052
S11300D00895E0ECF0E0908195FFFDCF8093C60099
S11300E008950F931F93CF93DF93FC010190002099
S11300F0E9F73197DE2FD81B51F08C01C0E0F801ED
S113010081918F010E946900CF5FDC13F8CF8AE0F0
S11301100E946900DF91CF911F910F910895F89487
S1050120FFCF0B
S113012241726475696E6F2076616E2052696361F3
S107013272646F0080
S9030000FC
