S01D000050726F6A6563742D322E312D2D2D41726475696E6F2E7372656319
S11300000C9434000C9449000C9449000C9449005D
S11300100C9449000C9449000C9449000C94490038
S11300200C9449000C9449000C9449000C94490028
S11300300C9449000C9449000C9449000C94490018
S11300400C9449000C9449000C9449000C94490008
S11300500C9449000C9449000C9449000C944900F8
S11300600C9449000C94490011241FBECFEFD8E032
S1130070DEBFCDBF11E0A0E0B1E0E6E3F1E002C0F5
S113008005900D92AA30B107D9F70E947C000C9418
S113009099000C9400001092C50083E38093C4007F
S11300A01092C00088E18093C10086E08093C20072
S11300B00895E0ECF0E0908195FFFDCF8093C600B9
S11300C008950F931F93CF93DF93FC0101900020B9
S11300D0E9F73197DE2FD81B51F08C01C0E0F8010D
S11300E081918F010E945900CF5FDC13F8CFDF911B
S11300F0CF911F910F9108950E944B002FEF83ED34
S113010090E3215080409040E1F700C0000014B813
S11301108CE08AB95A9A80E091E00E9461002FEF46
S113012083ED90E3215080409040E1F700C000004F
S1090130F2CFF894FFCFAA
S10D013641726475696E6F0A0000DF
S9030000FC
