S01D000050726F6A6563742D322E31202D2041726475696E6F2E7372656333
S11300000C9434000C9449000C9449000C9449005D
S11300100C9449000C9449000C9449000C94490038
S11300200C9449000C9449000C9449000C947B00F6
S11300300C9449000C9449000C9449000C94490018
S11300400C9449000C9449000C9449000C94490008
S11300500C9449000C9449000C9449000C944900F8
S11300600C9449000C94490011241FBECFEFD8E032
S1130070DEBFCDBF11E0A0E0B1E0EAEEF3E002C0E4
S113008005900D92A639B107D9F70E948D000C9402
S1130090F3010C9400005D9A08955D980895EFE6CD
S11300A0F0E08081826080830895EFE6F0E0808153
S11300B010825E9808955F9A08955F98089580EE7F
S11300C08AB9F89410928000E1E8F0E0108210926E
S11300D085001092840082E19AE7909389008093CE
S11300E088008081886080838081846080830E940E
S11300F05500789408951F920F920FB60F92112411
S11301008F939F939BB180E489278BB99F918F91A3
S11301100F900FBE0F901F901895CF93DF93CDB71C
S1130120DEB7C85CD1090FB6F894DEBF0FBECDBFF1
S11301300E9482012FEF83ED90E321508040904094
S1130140E1F700C000000E945F00809100019091DF
S113015001018C51914011F40E944B0080910001E7
S1130160909101018051914011F40E945B00B12CE7
S113017001E00F2EF0E1CF2EF1E0DF2EF02D0F2E57
S1130180FCE1EF2EF1E0FF2EF02D68EC70E0CE01E3
S113019001960E94BE0162E071E0CE0101960E94C8
S11301A0EA01892B99F48091000190910101805119
S11301B0914031F489E091E00E949801102F07C02A
S11301C085E191E00E949801102F01C01B2D6FE181
S11301D071E0CE0101960E94EA01892B29F480E3A3
S11301E091E00E949801102F6EE371E0CE01019618
S11301F00E94EA01892BF9F4809100019091010198
S11302008C51914029F485E491E00E9498014DC0FD
S113021080E591E00E9498018BE591E00E949801AD
S11302200E94700185E191E00E949801F092010121
S1130230E09200013AC06EE571E0CE0101960E94A1
S1130240EA01892BF9F48091000190910101805118
S1130250914029F487E691E00E9498011CC084E74C
S113026091E00E9498018BE591E00E9498010E9420
S11302705E0189E091E00E949801D0920101C09250
S1130280000109C0111105C081E891E00E949801A4
S113029007C0113029F48BE591E00E94980175CFD5
S11302A082E991E00E94980170CF6EE571E0CE0181
S11302B001960E94EA01892B31F2EDCF0E944D0094
S11302C00E945B000E944F002FEF83E294EF2150C5
S11302D080409040E1F700C000000E94550008955E
S11302E00E945D000E944B000E944F002FEF83E2AA
S11302F094EF215080409040E1F700C000000E943C
S1130300550008951092C50083E38093C4001092B1
S1130310C00088E18093C10086E08093C200089504
S1130320E0ECF0E0908195FFFDCF8093C600089546
S11303300F931F93CF93DF93FC0101900020E9F703
S11303403197DE2FD81B51F08C01C0E0F801819168
S11303508F010E949001CF5FDC13F8CF8AE00E94E6
S11303609001DF91CF911F910F910895E0ECF0E09F
S113037080818823ECF78091C6000895EF92FF9264
S11303800F931F93CF938C01C0E0E62EF12C81E0F4
S1130390E81AF10801C0C22F0E94B6018A3081F028
S11303A021E02C0FF801EC0FF11D8083822F90E0E7
S11303B0F801E80FF91F10828E159F0564F304C03D
S11303C0F801EC0FF11D1082CF911F910F91FF9056
S11303D0EF900895FB01DC018D91019080190110CB
S10D03E0D9F3990B0895F894FFCFA8
S11303EA1C0153746174757300526F6C6C656420DC
S11303FA646F776E00526F6C6C656420757000418F
S113040A726520796F752041726475696E6F3F0059
S113041A4920616D2041726475696E6F2100526FC3
S113042A6C20757000416C72656164792075700086
S113043A526F6C6C696E67207570004F4B00526F77
S113044A6C20646F776E00416C7265616479206414
S113045A6F776E00526F6C6C696E6720646F776E8B
S113046A00556E6B6E6F776E20636F6D6D616E648F
S109047A2100455252006E
S9030000FC
