:100000000C9434000C9449000C9449000C94490061
:100010000C9449000C9449000C9449000C9449003C
:100020000C9449000C9449000C9449000C94B400C1
:100030000C9449000C9449000C9449000C9449001C
:100040000C9449000C9449000C9449000C9449000C
:100050000C9449000C9449000C9449000C944900FC
:100060000C9449000C94490011241FBECFEFD8E036
:10007000DEBFCDBF11E0A0E0B1E0EEECF4E002C0E5
:1000800005900D92A83CB107D9F70E94C6000C94C8
:1000900065020C940000F9992CC062E071E0809137
:1000A0000A0090910B000E945F026AE771E0809164
:1000B0000800909109000E945F026EE180910600A5
:1000C000909107000E944D0268E180910400909198
:1000D00005000E944D0260EA8091020090910300A9
:1000E0000E944D0265E080910000909101000E9405
:1000F0004D020895F99907C0BC0180910A009091C2
:100100000B000E945F0208955D9A08955D9808951E
:10011000EFE6F0E08081826080830895EFE6F0E012
:10012000808110825E9808955F9A08955F9808957F
:1001300080EE8AB9F89410928000E1E8F0E0108235
:10014000109285001092840082E19AE790938900D2
:100150008093880080818860808380818460808330
:100160000E948E00789408951F920F920FB60F92FE
:1001700011248F939F939BB180E489278BB99F9122
:100180008F910F900FBE0F901F901895CF93DF9314
:10019000CDB7DEB7C85CD1090FB6F894DEBF0FBE8D
:1001A000CDBF0E94DC010E944B002FEF83ED90E356
:1001B000215080409040E1F700C000000E9498006C
:1001C00080910001909101018A57914011F40E94A1
:1001D000840080910001909101018B58914011F4AD
:1001E0000E949400B12C01E00F2EFAE7CF2EF1E02F
:1001F000DF2EF02D0F2EFBE8EF2EF1E0FF2EF02D7D
:1002000068EC70E0CE0101960E9418026BE071E08C
:10021000CE0101960E944402892B31F48CE191E0D9
:100220000E94F201102F01C01B2D6AE271E0CE0185
:1002300001960E944402892BB9F483E391E00E9465
:10024000F20168EC70E0CE0101960E941802CE0126
:1002500001960E947A0088E491E00E94F201CE01AA
:1002600001960E94F201102F63E571E0CE01019624
:100270000E944402892B01F58091000190910101B7
:100280008A57914031F48AE591E00E94F201102FE3
:1002900013C085E691E00E94F20180E791E00E94A0
:1002A000F2010E94CA0183E791E00E94F201D0921C
:1002B0000101C0920001102F6DE771E0CE0101969F
:1002C0000E944402892B89F48091000190910101E0
:1002D0008B58914029F484E891E00E94F2013FC0DC
:1002E00083E791E00E94F2013AC060E971E0CE013B
:1002F00001960E944402892BF9F4809100019091AB
:1003000001018B58914029F489E991E00E94F201A2
:100310001CC086EA91E00E94F20180E791E00E9411
:10032000F2010E94B80184E891E00E94F201F0928B
:100330000101E092000109C0111105C083EB91E0B9
:100340000E94F20107C0113029F480E791E00E9479
:10035000F20156CF84EC91E00E94F20151CF60E9A6
:1003600071E0CE0101960E944402892B31F2EDCF5B
:100370000E9486000E9494000E9488002FEF83E272
:1003800094EF215080409040E1F700C000000E94AF
:100390008E0008950E9496000E9484000E948800AA
:1003A0002FEF83E294EF215080409040E1F700C0AE
:1003B00000000E948E0008951092C50083E3809390
:1003C000C4001092C00088E18093C10086E0809351
:1003D000C2000895E0ECF0E0908195FFFDCF80939E
:1003E000C60008950F931F93CF93DF93FC010190F4
:1003F0000020E9F73197DE2FD81B51F08C01C0E0C7
:10040000F80181918F010E94EA01CF5FDC13F8CFE0
:100410008AE00E94EA01DF91CF911F910F91089528
:10042000E0ECF0E080818823ECF78091C60008952D
:10043000EF92FF920F931F93CF938C01C0E0E62EB3
:10044000F12C81E0E81AF10801C0C22F0E941002CD
:100450008A3081F021E02C0FF801EC0FF11D808330
:10046000822F90E0F801E80FF91F10828E159F058A
:1004700064F304C0F801EC0FF11D1082CF911F91BD
:100480000F91FF90EF900895FB01DC018D91019099
:1004900080190110D9F3990B0895262FF999FECFF1
:1004A00092BD81BDF89A019700B4021639F01FBAC7
:1004B00020BD0FB6F894FA9AF99A0FBE08950196E6
:0E04C000272F0E944E020C944D02F894FFCF9D
:1004CE007A0141726475696E6F31004172652079EF
:1004DE006F752041726475696E6F3F004920616DC2
:1004EE002041726475696E6F2100536574206E61D0
:1004FE006D650057686174206973206D79206E6593
:10050E0077206E616D653F004D79206E616D6520BF
:10051E00697300526F6C20757000416C7265616476
:10052E007920757000526F6C6C696E672075700063
:10053E004F4B00526F6C6C65642075700053746184
:10054E0074757300526F6C6C656420646F776E0007
:10055E00526F6C20646F776E00416C7265616479C6
:10056E0020646F776E00526F6C6C696E6720646FDB
:10057E00776E00556E6B6E6F776E20636F6D6D616B
:08058E006E6421004552520089
:00000001FF
