S01D000050726F6A6563742D322E31202D2041726475696E6F2E7372656333
S11300000C9434000C9449000C9449000C9449005D
S11300100C9449000C9449000C9449000C94490038
S11300200C9449000C9449000C9449000C946C0005
S11300300C9449000C9449000C9449000C94490018
S11300400C9449000C9449000C9449000C94490008
S11300500C9449000C9449000C9449000C944900F8
S11300600C9449000C94490011241FBECFEFD8E032
S1130070DEBFCDBF11E0A0E0B1E0ECE8F1E002C0EA
S113008005900D92A830B107D9F70E947E000C9418
S1130090C4000C940000EFE6F0E080811082089523
S11300A080EE8AB9F89410928000E1E8F0E01082C2
S11300B0109285001092840082E19AE7909389005F
S11300C080938800808188608083808184608083BD
S11300D00E944B00789408951F920F920FB60F92CE
S11300E011248F939F939BB180E489278BB99F91AF
S11300F08F910F900FBE0F901F9018950E94900043
S11301000E9450002FEF83ED90E3215080409040F7
S1130110E1F700C0000080E091E00E94A600FBCF60
S11301201092C50083E38093C4001092C00088E15C
S11301308093C10086E08093C2000895E0ECF0E073
S1130140908195FFFDCF8093C60008950F931F9370
S1130150CF93DF93FC0101900020E9F73197DE2F64
S1130160D81B51F08C01C0E0F80181918F010E94ED
S11301709E00CF5FDC13F8CF8AE00E949E00DF91DF
S10F0180CF911F910F910895F894FFCFC8
S10B018C44656661756C7400A2
S9030000FC
