:100000000C9434000C9449000C9449000C94490061
:100010000C9449000C9449000C9449000C9449003C
:100020000C9449000C9449000C9449000C94B400C1
:100030000C9449000C9449000C9449000C9449001C
:100040000C9449000C9449000C9449000C9449000C
:100050000C9449000C9449000C9449000C944900FC
:100060000C9449000C94490011241FBECFEFD8E036
:10007000DEBFCDBF11E0A0E0B1E0E6ECF4E002C0ED
:1000800005900D92A03DB107D9F70E94C6000C94CF
:1000900061020C940000F9992CC062E071E080913B
:1000A0000A0090910B000E945B0261E871E0809170
:1000B0000800909109000E945B026EE180910600A9
:1000C000909107000E94490268E18091040090919C
:1000D00005000E94490260EA8091020090910300AD
:1000E0000E94490265E080910000909101000E9409
:1000F00049020895F99907C0BC0180910A009091C6
:100100000B000E945B0208955D9A08955D98089522
:10011000EFE6F0E08081826080830895EFE6F0E012
:10012000808110825E9808955F9A08955F9808957F
:1001300080EE8AB9F89410928000E1E8F0E0108235
:10014000109285001092840082E19AE790938900D2
:100150008093880080818860808380818460808330
:100160000E948E00789408951F920F920FB60F92FE
:1001700011248F939F939BB180E489278BB99F9122
:100180008F910F900FBE0F901F901895CF93DF9314
:10019000CDB7DEB7C85CD1090FB6F894DEBF0FBE8D
:1001A000CDBF0E94D8010E944B002FEF83ED90E35A
:1001B000215080409040E1F700C000000E9498006C
:1001C00080910001909101018158914011F40E94A9
:1001D000840080910001909101018259914011F4B5
:1001E0000E949400B12C01E00F2EF1E8CF2EF1E037
:1001F000DF2EF02D0F2EF2E9EF2EF1E0FF2EF02D85
:1002000068EC70E0CE0101960E9414026BE071E090
:10021000CE0101960E944002892B31F48CE191E0DD
:100220000E94EE01102F01C01B2D6AE271E0CE0189
:1002300001960E944002892B99F483E391E00E9489
:10024000EE0168EC70E0CE0101960E941402CE012E
:1002500001960E947A0088E491E00E94EE01102F3E
:100260006AE571E0CE0101960E944002892B01F5FA
:1002700080910001909101018158914031F481E613
:1002800091E00E94EE01102F13C08CE691E00E94D5
:10029000EE0187E791E00E94EE010E94C6018AE725
:1002A00091E00E94EE01D0920101C0920001102F56
:1002B00064E871E0CE0101960E944002892B89F426
:1002C00080910001909101018259914029F48BE8BD
:1002D00091E00E94EE013FC08AE791E00E94EE01AA
:1002E0003AC067E971E0CE0101960E944002892B75
:1002F000F9F480910001909101018259914029F413
:1003000080EA91E00E94EE011CC08DEA91E00E941B
:10031000EE0187E791E00E94EE010E94B4018BE8B4
:1003200091E00E94EE01F0920101E092000109C00B
:10033000111105C08AEB91E00E94EE0107C0113057
:1003400029F487E791E00E94EE015ACF8BEC91E00F
:100350000E94EE0155CF67E971E0CE0101960E943F
:100360004002892B31F2EDCF0E9486000E9494005A
:100370000E9488002FEF83E294EF2150804090404C
:10038000E1F700C000000E948E0008950E949600D0
:100390000E9484000E9488002FEF83E294EF215096
:1003A00080409040E1F700C000000E948E00089558
:1003B0001092C50083E38093C4001092C00088E1CE
:1003C0008093C10086E08093C2000895E0ECF0E0E5
:1003D000908195FFFDCF8093C60008950F931F93E2
:1003E000CF93DF93FC0101900020E9F73197DE2FD6
:1003F000D81B51F08C01C0E0F80181918F010E945F
:10040000E601CF5FDC13F8CF8AE00E94E601DF91BE
:10041000CF911F910F910895E0ECF0E08081882347
:10042000ECF78091C6000895EF92FF920F931F930F
:10043000CF938C01C0E0E62EF12C81E0E81AF108A0
:1004400001C0C22F0E940C028A3081F021E02C0FE3
:10045000F801EC0FF11D8083822F90E0F801E80F86
:10046000F91F10828E159F0564F304C0F801EC0F8C
:10047000F11D1082CF911F910F91FF90EF90089581
:10048000FB01DC018D91019080190110D9F3990BCA
:100490000895262FF999FECF92BD81BDF89A019754
:1004A00000B4021639F01FBA20BD0FB6F894FA9ABC
:1004B000F99A0FBE08950196272F0E944A020C94C4
:0604C0004902F894FFCF91
:1004C600810141726475696E6F31004172652079F0
:1004D6006F752041726475696E6F3F004920616DCA
:1004E6002041726475696E6F2100536574206E61D8
:1004F6006D650057686174206973206D79206E659B
:1005060077206E616D653F004E616D652068617391
:10051600206265656E2073657400526F6C2075707D
:1005260000416C726561647920757000526F6C6C65
:10053600696E67207570004F4B00526F6C6C656476
:100546002075700053746174757300526F6C6C651E
:100556006420646F776E00526F6C20646F776E0054
:10056600416C726561647920646F776E00526F6CBE
:100576006C696E6720646F776E00556E6B6E6F7771
:100586006E20636F6D6D616E6421004552520000EE
:00000001FF
