S01D000050726F6A6563742D322E312D2D2D41726475696E6F2E7372656319
S11300000C9434000C943E000C943E000C943E007E
S11300100C943E000C943E000C943E000C943E0064
S11300200C943E000C943E000C943E000C943E0054
S11300300C943E000C943E000C943E000C943E0044
S11300400C943E000C943E000C943E000C943E0034
S11300500C943E000C943E000C943E000C943E0024
S11300600C943E000C943E0011241FBECFEFD8E048
S1130070DEBFCDBF0E9440000C9455000C940000DC
S1130080CF93DF9300D0CDB7DEB71A82198289816E
S11300909A818F3F9F4731F089819A8101969A8393
S11100A08983F5CF1A821982F2CFF894FFCF2C
S9030000FC
